:060000000A128A11DE2F36
:100A08000A128A11EC250A128A110A128A11622620
:100A18000A128A11092D0A128A1100287E088A00F2
:100A28007F0882000A128A1112250A128A11800090
:100A3800840A04087D0603190034FF0A0319FE0A14
:100A4800162DF20083120313871572088800071405
:100A5800FE30FF007F088705C330F100CD30F0007D
:100A6800F00B342DF10B342D0800F200F101721C4B
:100A78003E2D3F2D432D7008FF007F08F10703101E
:100A8800F00D0310F20C7208031D4B2D4C2D3B2D5D
:100A980071080800F200F730FF007F088312031383
:100AA8008705720888000714FE30FF007F08870555
:100AB800C330F100CD30F000F00B602DF10B602D4C
:100AC80008005334453454342034533450344434B7
:100AD8003A342034203420342034723470346D3465
:100AE800003400340034003400340034003400345E
:100AF8000034003400340034003400340034F4018D
:100B0800F501701C882D892D8F2D7208F4070318A4
:100B1800F50A7308F50701300310F20DF30DFF3ED7
:100B2800031D902D01300310F10CF00CFF3E031D46
:100B3800972D70087104031DA22DA32D852D75080E
:100B4800F1007408F0000800FA01FB017608770448
:100B58000319AF2DB02DE72DFC01FC0ABE2D013085
:100B68000310F60DF70DFF3E031DB42D0130FF00F5
:100B78007F08FC07F71FC12DC22DB32D01300310CC
:100B8800FA0DFB0DFF3E031DC32D77087902031DE7
:100B9800CF2D76087802031CD22DD32DDA2D7608B6
:100BA800F8027708031CF903F9027A1401300310DC
:100BB800F70CF60CFF3E031DDB2D0130FC02031D74
:100BC800E62DE72DC22D7B08F7007A08F60008000D
:100BD800831603138701F0308600880183120313FC
:100BE80086017F30FF007F088316031381053830A4
:100BF8000A128A114E250A128A11C330F400CD3028
:100C0800F300F30B052EF40B052E38300A128A1167
:100C18004E250A128A11C330F400CD30F300F30BCD
:100C2800132EF40B132E38300A128A114E250A128D
:100C38008A11C330F400CD30F300F30B212EF40BEE
:100C4800212E38300A128A114E250A128A11C33011
:100C5800F400CD30F300F30B2F2EF40B2F2E0630BB
:100C68000A128A114E250A128A11C330F400CD30B7
:100C7800F300F30B3D2EF40B3D2E0C300A128A11B3
:100C88004E250A128A11C330F400CD30F300F30B5D
:100C98004B2EF40B4B2E01300A128A114E250A12E4
:100CA8008A11C330F400CD30F300F30B592EF40B46
:100CB800592E83120313C001C101080083120313C4
:100CC8000608F039CA00FE2E80300A128A114E2515
:100CD8000A128A1183120313CC014C08203E8400A7
:100CE800831300080A128A1125250A128A11013075
:100CF800FF007F0883120313CC0708304C02031C43
:100D0800862E872E712E8C300A128A114E250A12D1
:100D18008A110C3083120313CC004C08203E840047
:100D2800831300080A128A1125250A128A11013034
:100D3800FF007F0883120313CC070F304C02031CFB
:100D4800A62EA72E912E88300A128A114E250A1235
:100D58008A11831203134108CE004008CD000A12FD
:100D68008A110D270A128A110C2F0130C0070318A7
:100D7800C10A0030C107133041028930031940020B
:100D8800031CC72EC82ECC2E8830C0001330C100DB
:100D980088300A128A114E250A128A118312031307
:100DA8004108CE004008CD000A128A110D270A1208
:100DB8008A110C2F0130C0020030031CC103C1028C
:100DC80040084104031DE92EEA2EEE2E0130C00032
:100DD8000030C10088300A128A114E250A128A1181
:100DE800D22EC001C10188300A128A114E250A127A
:100DF8008A11D22E4A08703A0319F52EC03A0319FF
:100E0800DE2E603A0319B92E303A0319682E0C2FDA
:100E18000800E830F6000330F700831203134E0889
:100E2800F9004D08F8000A128A11A8250A128A1139
:100E3800760883120313CF00D0014F08C80050086A
:100E4800C9006430F6000030F7004908F10048088E
:100E5800F0001830F200FC30F3000A128A118325E2
:100E68000A128A11831203134D087007F8004E08FE
:100E780003184E0A7107F9000A128A11A8250A12E6
:100E88008A11760883120313CF00D0014F08C600D9
:100E98005008C7000A30F6000030F7004908F10092
:100EA8004808F0001830F200FC30F3000A128A11EA
:100EB80083250A128A11700883120313CF00710860
:100EC800D0004708F1004608F0009C30F200FF30DF
:100ED800F3000A128A1183250A128A1170088312F4
:100EE80003134F07D10071080318710A5007D20085
:100EF8004D085107F8004E0803184E0A5207F9002A
:100F08000A128A11A8250A128A1176088312031375
:100F1800D300D4015308C4005408C5001830F000A9
:100F280048080A128A1139250A128A1183120313F2
:100F3800CF009C30F00046080A128A1139250A129F
:100F48008A1183120313D000F630F00044080A1205
:100F58008A1139250A128A118312031350074F0781
:100F68004D07D100D2015108C2005208C3004808F9
:100F7800303E0A128A1125250A128A118312031398
:100F88004608303E0A128A1125250A128A11831250
:100F980003134408303E0A128A1125250A128A11C1
:100FA800831203134208303E0A128A1125250A12B9
:100FB8008A11080083133E30FD000530FE006530BD
:100FC800FF00203084000A128A1116250A128A119D
:100FD800BE01BF01C001C101C201C301C401C501F5
:100FE800C601C701C801C901CA01CB01CC01FD0175
:080FF80083010A128A11042D85
:02400E003B3F36
:00000001FF
