:060000000A128A11FC2F18
:100F7C007F30FF007F08831603138105080083165A
:100F8C0003138701831203138701F03083160313B5
:100F9C0086008312031386010A128A11BE270A12D5
:100FAC008A11831203130608F039F000E82F803001
:100FBC008700D72F04308700D72F8701D72F843095
:100FCC008700D72F7008703A0319E52FC03A031920
:100FDC00E32F603A0319E02F303A0319DD2F103A52
:100FEC000319E32FE32F0A128A11002883010A1236
:040FFC008A11C52F62
:02400E003B3F36
:00000001FF
