:060000000A128A11FB2F19
:100ED000F030831603138600880183120313860102
:100EE00088017F30FF007F08831603138105C0301F
:100EF0008700203098009030831203139800093047
:100F000083160313990008000A128A1168270A122F
:100F10008A11831203130608F039F200BF2F413003
:100F200099006230F1006530F000F00B952FF10B65
:100F3000952F9A2FCD2F423099006230F100653005
:100F4000F000F00BA12FF10BA12FA62FCD2F4330D6
:100F500099006230F1006530F000F00BAD2FF10B1D
:100F6000AD2FB22FCD2F443099006230F1006530A3
:100F7000F000F00BB92FF10BB92FBE2FCD2F720857
:100F8000703A0319B32FC03A0319A72F603A031917
:100F90009B2F303A03198F2FCD2F831203138C1EF2
:100FA000D22FD32F892F1A08F300E12F01308800A8
:100FB000EF2F40308800EF2F8801EF2F413088005D
:100FC000EF2F7308613A0319D62F033A0319D92F6B
:100FD000013A0319DC2F073A0319DE2FDC2FC33047
:100FE000F100CD30F000F00BF32FF10BF32F892F30
:100FF0000A128A110028F30183010A128A11842F30
:00000001FF
