:060000000A128A11F32F21
:100C9A0064008001840A04060319003404064E2EF7
:100CAA00F200831203138715720888000714FE30B6
:100CBA00FF007F088705C330F100CD30F000F00B4C
:100CCA00642EF10B642E0800F900F801791C6E2ECF
:100CDA006F2E732E7708FF007F08F8070310F70DB1
:100CEA000310F90C7908031D7B2E7C2E6B2E7808D5
:100CFA000800F200F730FF007F088312031387050C
:100D0A00720888000714FE30FF007F088705C33089
:100D1A00F100CD30F000F00B902EF10B902E080070
:100D2A00F401F5017008710403199C2E9D2ED42E2E
:100D3A00F601F60AAB2E01300310F00DF10DFF3E5D
:100D4A00031DA12E0130FF007F08F607F11FAE2E0A
:100D5A00AF2EA02E01300310F40DF50DFF3E031D3A
:100D6A00B02E71087302031DBC2E70087202031C98
:100D7A00BF2EC02EC72E7008F2027108031CF3039F
:100D8A00F302741401300310F10CF00CFF3E031D42
:100D9A00C82E0130F602031DD32ED42EAF2E7508AD
:100DAA00F1007408F00008000A128A1123270A12B7
:100DBA008A112B3083120313B4000230B5007B3042
:100DCA00B2000030B3003D30B7002B30B60080309F
:100DDA000A128A117E260A128A112B30FA00023070
:100DEA00FB000A128A118A270A128A112B300A1268
:100DFA008A1155260A128A117B30FA000030FB004C
:100E0A000A128A118A270A128A113D300A128A1195
:100E1A0055260A128A11A63083120313B000023033
:100E2A00B100A630FA000230FB000A128A118A27A2
:100E3A000A128A111F2F0A128A1100288316031315
:100E4A008701880138300A128A117E260A128A110D
:100E5A00C330F400CD30F300F30B312FF40B312FF4
:100E6A0038300A128A117E260A128A11C330F40017
:100E7A00CD30F300F30B3F2FF40B3F2F38300A121B
:100E8A008A117E260A128A11C330F400CD30F3008B
:100E9A00F30B4D2FF40B4D2F38300A128A117E2690
:100EAA000A128A11C330F400CD30F300F30B5B2F22
:100EBA00F40B5B2F06300A128A117E260A128A1157
:100ECA00C330F400CD30F300F30B692FF40B692F14
:100EDA000C300A128A117E260A128A11C330F400D3
:100EEA00CD30F300F30B772FF40B772F01300A1272
:100EFA008A117E260A128A11C330F400CD30F3001B
:100F0A00F30B852FF40B852F0800FD01FD0A7B08E2
:100F1A0083120313AD007A08AC00C92FF630F7002C
:100F2A002D08F3002C08F2000A30F0000030F1001E
:100F3A000A128A1195260A128A1170080A128A114F
:100F4A0069260A128A11831203132C07FC007D08F2
:100F5A00203E84007C08831380000130FF007F0854
:100F6A00FD070A30F0000030F1002D08F3002C08CC
:100F7A00F2000A128A1195260A128A11710883123E
:100F8A000313AD007008AC002C082D04031DCE2FEE
:100F9A00CF2F932F7D08203E8400831380017D0884
:100FAA00FF3EFD00ED2F7D08203E840083130008DC
:100FBA00303E83120313AA00003003180130AB003D
:100FCA002A080A128A1155260A128A110130FD02CC
:100FDA007D08031DF12FF22FD82F0800831320302C
:100FEA00840039300A128A114D260A128A118301A5
:060FFA000A128A11D92E33
:02400E003B3F36
:00000001FF
