:060000000A128A11E72F2D
:100978007E088A007F0882000A128A11BC240A12A3
:100988008A118000840A04087D0603190034FF0ACE
:100998000319FE0AC02CF20083120313871572088C
:1009A80088000714FE30FF007F088705C330F10078
:1009B800CD30F000F00BDE2CF10BDE2C08004134BA
:1009C800443443342034633461346C343A3420344E
:1009D800003441344434433420347234613477343D
:1009E8003A3420340034F200F730FF007F088312D5
:1009F80003138705720888000714FE30FF007F087C
:100A08008705C330F100CD30F000F00B092DF10B54
:100A1800092D0800700871040319132D142D432D96
:100A2800F401F40A222D01300310F00DF10DFF3E00
:100A3800031D182D0130FF007F08F407F11F252D35
:100A4800262D172D71087302031D2C2D70087202B4
:100A5800031C2F2D302D362D7008F2027108031C4F
:100A6800F303F30201300310F10CF00CFF3E031DF9
:100A7800372D0130F402031D422D432D262D730816
:100A8800F1007208F0000800F401F5017008710423
:100A980003194F2D502D872DF601F60A5E2D0130D2
:100AA8000310F00DF10DFF3E031D542D0130FF0022
:100AB8007F08F607F11F612D622D532D01300310B9
:100AC800F40DF50DFF3E031D632D71087302031D20
:100AD8006F2D70087202031C722D732D7A2D700809
:100AE800F2027108031CF303F302741401300310BB
:100AF800F10CF00CFF3E031D7B2D0130F602031DA7
:100B0800862D872D622D7508F1007408F000080005
:100B18000030FC000030FB000030FA000030F90023
:100B2800701C972D982DAF2D7408F90775080311BF
:100B38000318013E0319A12DFA07760803110318BB
:100B4800013E0319A82DFB07770803110318013E7E
:100B58000319AF2DFC070130F8000310F40DF50D53
:100B6800F60DF70DF80BB12D01300310F30CF20C54
:100B7800F10CF00CFF3E031DB92D730872047104CB
:100B88007004031DC82DC92D942D7C08F3007B0823
:100B9800F2007A08F1007908F000080083120313C4
:100BA800B901032E831203133908343E84000A3036
:100BB800F0000030F1007808F3007708F2000A121C
:100BC8008A110E250A128A117008303E831380009C
:100BD8000130FF007F0883120313B9070A30F000C1
:100BE8000030F1007808F3007708F2000A128A1141
:100BF80048250A128A117108F8007008F70077086A
:100C08007804031D082E092ED62D013083120313F4
:100C1800B902390A031D112E122E132E262E390859
:100C2800343E8400831300080A128A11CF240A1262
:100C38008A11013083120313B902390A031D252EC4
:100C4800262E132E0800003083120313BF00003035
:100C5800BE000030BD000030BC0037083604350443
:100C680034040319382E392E862EC001C00A492EA5
:100C78000130FD000310B40DB50DB60DB70DFD0B19
:100C88003E2E0130FF007F08C007B71F4C2E4D2EA7
:100C98003C2E0130FD000310BC0DBD0DBE0DBF0D77
:100CA800FD0B4F2E37083B02031D642E36083A020F
:100CB800031D642E35083902031D642E34083802DA
:100CC800031C672E682E772E3408B8023508031CDB
:100CD800350FB9023608031C360FBA023708031C51
:100CE800370FBB023C1401300310B70CB60CB50C1F
:100CF800B40CFF3E031D782E0130C002031D852E63
:100D0800862E4D2E3F08B7003E08B6003D08B500B8
:100D18003C08B400080004308316031385008701DB
:100D280088019130831203139F008E3083160313BA
:100D38009F0030300A128A11F7240A128A11C33030
:100D4800F400CD30F300F30BA72EF40BA72E3030B0
:100D58000A128A11F7240A128A11C330F400CD301E
:100D6800F300F30BB52EF40BB52E30300A128A11AE
:100D7800F7240A128A11C330F400CD30F300F30BC4
:100D8800C32EF40BC32E38300A128A11F7240A1224
:100D98008A11C330F400CD30F300F30BD12EF40BDD
:100DA800D12E06300A128A11F7240A128A11C3308A
:100DB800F400CD30F300F30BDF2EF40BDF2E0C30F4
:100DC8000A128A11F7240A128A11C330F400CD30AE
:100DD800F300F30BED2EF40BED2E01300A128A11FD
:100DE800F7240A128A11C330F400CD30F300F30B54
:100DF800FB2EF40BFB2E08000A128A118F260A120A
:100E08008A1180300A128A11F7240A128A11831271
:100E18000313C301C4018312031343082A3E840049
:100E2800831300080A128A11CF240A128A1101308A
:100E380083120313C3070318C40A0030C407440805
:100E4800803AFF0080307F02031D2C2F09304302B7
:100E5800031C2F2F302F0F2FC0300A128A11F724AE
:100E68000A128A1183120313C301C40183120313E4
:100E78004308203E8400831300080A128A11CF24F5
:100E88000A128A11013083120313C3070318C40A14
:100E98000030C4074408803AFF0080307F02031DF9
:100EA800572F09304302031C5A2F5B2F3A2F9130DA
:100EB800831203139F001F151F19632F642F602FC0
:100EC8001E08C100C2014108C7004208C8008316B5
:100ED80003131E0883120313C100C2014108C9008D
:100EE8004208CA004708C200C10149084104C500B8
:100EF8004A084204C6000030B7000030B60003308C
:100F0800B500FF30B4004508F0004608F100F201D2
:100F1800F3010030F7000030F6000030F5006430CF
:100F2800F4000A128A118C250A128A117308831296
:100F38000313BB007208BA007108B9007008B80042
:100F48000A128A1127260A128A11831203133408F7
:100F5800CB0089300A128A11F7240A128A118312E7
:100F680003134608F8004508F7000A128A11D2252B
:100F78000A128A11C9300A128A11F7240A128A1130
:100F8800831203134B08C100C2014108F70042084D
:100F9800F8000A128A11D2250A128A1156300A124A
:100FA8008A11CF240A128A11C33083120313C20094
:100FB800CC30C100C10BDE2FC20BDE2F00005B2F2F
:100FC8000A128A11002883133430FD000430FE0011
:100FD800E330FF00203084000A128A11C0240A126C
:100FE8008A11C501C601C701C801C901CA01CB01DF
:080FF80083010A128A11002F87
:02400E003B3F36
:00000001FF
