:060000000A128A11F62F1E
:100C9A000134F200831203138715720888000714BF
:100CAA00FE30FF007F088705C330F100CD30F00029
:100CBA00F00B5D2EF10B5D2E0800F200F730FF00FD
:100CCA007F08831203138705720888000714FE3011
:100CDA00FF007F088705C330F100CD30F000F00B2C
:100CEA00742EF10B742E0800F5007503031D7E2E79
:100CFA007F2E832E73087F3EF4008C2E02307506F9
:100D0A00031D882E892E8C2E7308BF3EF4007408AA
:100D1A000A128A1162260A128A1108002730F10083
:100D2A00F530F000F00B972EF10B972E8312031378
:100D3A00081EA02EA12E9B2E881EA42EA52E9B2E09
:100D4A00081FA82EA92E9B2E2730F100F530F0009F
:100D5A00F00BAD2EF10BAD2E08000A128A11F42603
:100D6A000A128A1101300A128A1162260A128A119B
:100D7A00F301F30A01300A128A1179260A128A113A
:100D8A000A128A115E270A128A11F6006E30760656
:100D9A000319D02ED12EC52E7708F30001300A127E
:100DAA008A1179260A128A1176080A128A114E269F
:100DBA000A128A110130FF007F08F7071130770203
:100DCA00031CE82EE92EEB2EF701F70A0A128A1104
:100DDA0093260A128A11C52E0A128A11002883162E
:100DEA0003138701F0308800F030860030300A1291
:100DFA008A1162260A128A11C330F400CD30F30038
:100E0A00F30B052FF40B052F30300A128A116226D4
:100E1A000A128A11C330F400CD30F300F30B132FFA
:100E2A00F40B132F30300A128A1162260A128A1121
:100E3A00C330F400CD30F300F30B212FF40B212F34
:100E4A0038300A128A1162260A128A11C330F40053
:100E5A00CD30F300F30B2F2FF40B2F2F06300A128D
:100E6A008A1162260A128A11C330F400CD30F300C7
:100E7A00F30B3D2FF40B3D2F0C300A128A11622618
:100E8A000A128A11C330F400CD30F300F30B4B2F52
:100E9A00F40B4B2F01300A128A1162260A128A11A8
:100EAA00C330F400CD30F300F30B592FF40B592F54
:100EBA000800831203130608F03901388600081A5D
:100ECA00672F682F6F2F0A128A1193260A128A1126
:100EDA003130F52F881A722F732F7A2F0A128A113E
:100EEA0093260A128A113230F52F081B7D2F7E2F86
:100EFA00852F0A128A1193260A128A113330F52F86
:100F0A000608F03902388600081A8C2F8D2F942F84
:100F1A000A128A1193260A128A113430F52F881A76
:100F2A00972F982F9F2F0A128A1193260A128A1135
:100F3A003530F52F081BA22FA32FAA2F0A128A11C8
:100F4A0093260A128A113630F52F0608F03904382A
:100F5A008600081AB12FB22FB92F0A128A119326C6
:100F6A000A128A113730F52F881ABC2FBD2FC42FC9
:100F7A000A128A1193260A128A113830F52F081B91
:100F8A00C72FC82FCF2F0A128A1193260A128A1145
:100F9A003930F52F0608F03908388600081AD62F96
:100FAA00D72FDE2F0A128A1193260A128A112A30A3
:100FBA00F52F881AE12FE22FE92F0A128A119326B8
:100FCA000A128A113030F52F081BEC2FED2FF42F5F
:100FDA000A128A1193260A128A112330F52F6E30CB
:100FEA0008000A128A114D260A128A11F700830193
:060FFA000A128A11B22E5A
:02400E003B3F36
:00000001FF
