:060000000A128A11E72F2D
:100A8A007E088A007F0882000A128A1145250A1206
:100A9A008A118000840A04087D0603190034FF0ABB
:100AAA000319FE0A492DF2008312031387157208EF
:100ABA0088000714FE30FF007F088705C330F10065
:100ACA00CD30F000F00B672DF10B672D0800413493
:100ADA00443443342034633461346C343A3420343B
:100AEA00003441344434433420347234613477342A
:100AFA003A3420340034F200F730FF007F088312C2
:100B0A0003138705720888000714FE30FF007F0868
:100B1A008705C330F100CD30F000F00B922DF10BB8
:100B2A00922D0800F401F501701C9C2D9D2DA32D1A
:100B3A007208F4070318F50A7308F5070130031061
:100B4A00F20DF30DFF3E031DA42D01300310F10C2D
:100B5A00F00CFF3E031DAB2D70087104031DB62D6A
:100B6A00B72D992D7508F1007408F0000800700877
:100B7A0071040319C12DC22DF12DF401F40AD02DEF
:100B8A0001300310F00DF10DFF3E031DC62D01309B
:100B9A00FF007F08F407F11FD32DD42DC52D71084E
:100BAA007302031DDA2D70087202031CDD2DDE2D7F
:100BBA00E42D7008F2027108031CF303F3020130FA
:100BCA000310F10CF00CFF3E031DE52D0130F40279
:100BDA00031DF02DF12DD42D7308F1007208F000D9
:100BEA000800FA01FB01760877040319FD2DFE2D92
:100BFA00352EFC01FC0A0C2E01300310F60DF70D00
:100C0A00FF3E031D022E0130FF007F08FC07F71F7D
:100C1A000F2E102E012E01300310FA0DFB0DFF3E90
:100C2A00031D112E77087902031D1D2E76087802FE
:100C3A00031C202E212E282E7608F8027708031C82
:100C4A00F903F9027A1401300310F70CF60CFF3E8F
:100C5A00031D292E0130FC02031D342E352E102EC1
:100C6A007B08F7007A08F600080083120313BE0116
:100C7A003508BD003408BC003C083D04031D462E5F
:100C8A00472E7D2E30300A128A1158250A128A11EF
:100C9A009E2E0A30F0000030F1003D08F3003C08B7
:100CAA00F2000A128A11BC250A128A1170088312EC
:100CBA000313BB003E08363E84003B08303E8313D4
:100CCA0080000130FF007F08BE070A30F6000030BE
:100CDA00F7003D08F9003C08F8000A128A11F625C7
:100CEA000A128A11770883120313BD007608BC0022
:100CFA003C083D04031D822E832E4E2E0130BE0277
:100D0A003E0A031D892E8A2E8B2E9E2E3E08363EC3
:100D1A008400831300080A128A1158250A128A11BC
:100D2A00013083120313BE023E0A031D9D2E9E2E1E
:100D3A008B2E080001308316031385008701880172
:100D4A008130831203139F008E30831603139F0092
:100D5A0030300A128A1180250A128A11C330F4002F
:100D6A00CD30F300F30BB72EF40BB72E30300A1246
:100D7A008A1180250A128A11C330F400CD30F3009B
:100D8A00F30BC52EF40BC52E30300A128A118025BA
:100D9A000A128A11C330F400CD30F300F30BD32EBC
:100DAA00F40BD32E38300A128A1180250A128A11BE
:100DBA00C330F400CD30F300F30BE12EF40BE12E37
:100DCA0006300A128A1180250A128A11C330F400E9
:100DDA00CD30F300F30BEF2EF40BEF2E0C300A128A
:100DEA008A1180250A128A11C330F400CD30F3002B
:100DFA00F30BFD2EF40BFD2E01300A128A11802509
:100E0A000A128A11C330F400CD30F300F30B0B2F12
:100E1A00F40B0B2F08000A128A119F260A128A1154
:100E2A0080300A128A1180250A128A11831203134A
:100E3A00C101C2018312031341082A3E84008313AD
:100E4A0000080A128A1158250A128A1101308312DF
:100E5A000313C1070318C20A0030C2074208803AC6
:100E6A00FF0080307F02031D3C2F09304102031C22
:100E7A003F2F402F1F2FC0300A128A1180250A12D5
:100E8A008A1183120313C101C20183120313410899
:100E9A00203E8400831300080A128A1158250A1278
:100EAA008A11013083120313C1070318C20A0030E2
:100EBA00C2074208803AFF0080307F02031D672F75
:100ECA0009304102031C6A2F6B2F4A2F813083128B
:100EDA0003139F001F151F19732F742F702F1E08DD
:100EEA00BF00C0013F08C5004008C60083160313AF
:100EFA001E0883120313BF00C0013F08C700400841
:100F0A00C8004508C000BF0147083F04C30048089D
:100F1A004004C400FF30F6000330F7004408F10033
:100F2A004308F0003030F2000030F3000A128A1150
:100F3A0097250A128A117108F9007008F8000A1236
:100F4A008A11F6250A128A11760883120313C90038
:100F5A0089300A128A1180250A128A118312031310
:100F6A004408B5004308B4000A128A113A260A1244
:100F7A008A11C9300A128A1180250A128A1183122B
:100F8A0003134908BF00C0013F08B4004008B50078
:100F9A000A128A113A260A128A1156300A128A113C
:100FAA0058250A128A11C33083120313C000CC30A9
:100FBA00BF00BF0BDE2FC00BDE2F00006B2F0A1203
:100FCA008A11002883133430FD000530FE006C308E
:100FDA00FF00203084000A128A1149250A128A1158
:100FEA00C301C401C501C601C701C801C901830102
:060FFA000A128A11102FFB
:02400E003B3F36
:00000001FF
