:100000000A128A11EC2F00308A000408840A820741
:100010000034423441345434543445345234593425
:1000200020344E344F3452344D3441344C34203427
:1000300027340034273400344234413454345434A7
:1000400045345234593420344834493447344834E0
:1000500020342034273400342734003442344134EF
:100060005434543445345234593420344C344F349D
:0E007000573420342034273400342734003431
:10085A000A128A1135260A128A110A128A113027B7
:10086A000A128A11322C0A128A110028423441349F
:10087A0054345434203456344F344C3454343A3487
:10088A00203400340034003400340034AF340034EF
:10089A007E088A007F0882000A128A114D240A12F1
:1008AA008A118000840A04087D0603190034FF0AAD
:1008BA000319FE0A512CF2008312031387157208DA
:1008CA0088000714FE30FF007F0887056230F100B8
:1008DA006530F000F00B6F2CF10B6F2C742C0800B4
:1008EA00F200F730FF007F088312031387057208AE
:1008FA0088000714FE30FF007F0887056230F10088
:10090A006530F000F00B872CF10B872C8C2C08003B
:10091A00700871040319922C932CC22CF401F40A66
:10092A00A12C01300310F00DF10DFF3E031D972C91
:10093A000130FF007F08F407F11FA42CA52C962C88
:10094A0071087302031DAB2C70087202031CAE2CD3
:10095A00AF2CB52C7008F2027108031CF303F302E2
:10096A0001300310F10CF00CFF3E031DB62C0130D0
:10097A00F402031DC12CC22CA52C7308F1007208C5
:10098A00F0000800F401F501700871040319CE2C77
:10099A00CF2C062DF601F60ADD2C01300310F00DDE
:1009AA00F10DFF3E031DD32C0130FF007F08F6072F
:1009BA00F11FE02CE12CD22C01300310F40DF50DBF
:1009CA00FF3E031DE22C71087302031DEE2C700812
:1009DA007202031CF12CF22CF92C7008F202710835
:1009EA00031CF303F302741401300310F10CF00C2E
:1009FA00FF3E031DFA2C0130F602031D052D062DBC
:100A0A00E12C7508F1007408F0000800F501F31FE5
:100A1A000F2D102D172DF209F309F20A0319F30A03
:100A2A00F501F50AF11F1A2D1B2D202DF009F109E8
:100A3A00F00A0319F10A700871040319252D262DED
:100A4A00552DF401F40A342D01300310F00DF10D87
:100A5A00FF3E031D2A2D0130FF007F08F407F11F16
:100A6A00372D382D292D71087302031D3E2D70086C
:100A7A007202031C412D422D482D7008F2027108A2
:100A8A00031CF303F30201300310F10CF00CFF3ED8
:100A9A00031D492D0130F402031D542D552D382D07
:100AAA0075080319592D5A2D5F2DF209F309F20A17
:100ABA000319F30A7308F1007208F0000800F5013F
:100ACA00F11F682D692D702DF009F109F00A03193B
:100ADA00F10AF501F50AF31F732D742D7D2DF20924
:100AEA00F309F20A0319F30A0130FF007F08F50639
:100AFA00F601F701700871040319842D852DBC2DA8
:100B0A00F401F40A932D01300310F00DF10DFF3EAC
:100B1A00031D892D0130FF007F08F407F11F962D70
:100B2A00972D882D01300310F60DF70DFF3E031D9A
:100B3A00982D71087302031DA42D70087202031CFC
:100B4A00A72DA82DAF2D7008F2027108031CF3031C
:100B5A00F302761401300310F10CF00CFF3E031D72
:100B6A00B02D0130F402031DBB2DBC2D972D750845
:100B7A000319C02DC12DC62DF609F709F60A031966
:100B8A00F70A7708F1007608F00008000A30F0004A
:100B9A000030F1007908F3007808F2000A128A118D
:100BAA00C7240A128A11700883120313B4000A3088
:100BBA00F0000030F1007908F3007808F2000A1218
:100BCA008A118D240A128A11700883120313B20043
:100BDA000A30F0000030F1003408FA00FB017A080C
:100BEA00F2007B08F3000A128A1164250A128A119C
:100BFA00700883120313B3000A30F0000030F100CA
:100C0A003408FA00FB017A08F2007B08F3000A12A2
:100C1A008A110B250A128A11700883120313B40071
:100C2A003308303E0A128A1160240A128A1183128A
:100C3A0003133408303E0A128A1160240A128A11F8
:100C4A002E300A128A1160240A128A11831203139F
:100C5A003208303E0A128A1160240A128A110800E8
:100C6A008316031387018801F03086008312031369
:100C7A0086017F30FF007F08831603138105383011
:100C8A000A128A1175240A128A111430F400793072
:100C9A00F300F30B4E2EF40B4E2E532E38300A125D
:100CAA008A1175240A128A111430F4007930F3007B
:100CBA00F30B5D2EF40B5D2E622E38300A128A1168
:100CCA0075240A128A111430F4007930F300F30BF8
:100CDA006C2EF40B6C2E712E38300A128A11752480
:100CEA000A128A111430F4007930F300F30B7B2EC8
:100CFA00F40B7B2E802E06300A128A1175240A12F2
:100D0A008A111430F4007930F300F30B8A2EF40BB5
:100D1A008A2E8F2E0C300A128A1175240A128A1111
:100D2A001430F4007930F300F30B992EF40B992E5A
:100D3A009E2E01300A128A1175240A128A11143061
:100D4A00F4007930F300F30BA82EF40BA82EAD2E85
:100D5A000800C0300A128A1175240A128A11FD018C
:100D6A000E307D02031CBA2EBB2EBC2EC72E20309D
:100D7A000A128A1160240A128A110130FF007F08C0
:100D8A00FD07B52EC0300A128A1175240A128A117B
:100D9A000030831203133102AF30031930020318F3
:100DAA00D72ED82EF22EFD010C307D02031CDE2E2A
:100DBA00DF2EE02E2F2F7D08263E84000A128A118C
:100DCA0003200A128A110A128A1160240A128A114D
:100DDA000130FF007F08FD07D92E00303102C430F0
:100DEA00031930020318FA2EFB2E152FFD010E30BF
:100DFA007D02031C012F022F032F2F2F7D08013E96
:100E0A0084000A128A1103200A128A110A128A110C
:100E1A0060240A128A110130FF007F08FD07FC2EA8
:100E2A00FD010C307D02031C1B2F1C2F1D2F2F2FA1
:100E3A007D08143E84000A128A1103200A128A11BC
:100E4A000A128A1160240A128A110130FF007F08EF
:100E5A00FD07162F0800831203130608F039FC0059
:100E6A00DD2F80300A128A1175240A128A11FD01B7
:100E7A000A307D02031C422F432F442F532F7D0833
:100E8A00203E8400831300080A128A1160240A1281
:100E9A008A110130FF007F08FD073D2F83120313DB
:100EAA003108F9003008F8000A128A11CB250A1213
:100EBA008A110A128A11AE260A128A11EB2F003001
:100ECA003102CD300319300203186C2F6D2F732FA6
:100EDA000130B0070318B10A0030B10780300A1296
:100EEA008A1175240A128A11FD010A307D02031C37
:100EFA007F2F802F812F532F7D08203E840083135C
:100F0A0000080A128A1160240A128A110130FF00AD
:100F1A007F08FD077A2F003031029C300319300216
:100F2A00031C982F992F9F2F0130B0020030031C09
:100F3A00B103B10280300A128A1175240A128A1189
:100F4A00FD010A307D02031CAB2FAC2FAD2F532FAE
:100F5A007D08203E8400831300080A128A11602447
:100F6A000A128A110130FF007F08FD07A62F9B3065
:100F7A00B0000030B10080300A128A1175240A12BA
:100F8A008A11FD010A307D02031CCC2FCD2FCE2FF2
:100F9A00532F7D08203E8400831300080A128A1109
:100FAA0060240A128A110130FF007F08FD07C72F4B
:100FBA007C08703A0319BC2FC03A0319902F603A83
:100FCA000319642F303A0319362FEB2F08008313C5
:100FDA003230FD000430FE003B30FF002030840038
:100FEA000A128A1151240A128A11FC01FD01830195
:060FFA000A128A112D2CE1
:02400E003B3F36
:00000001FF
