:060000000A128A110E280D
:10000800FE00030EF3000A08F4007F08F5000A1248
:100018008A1147280A128A111128F60183010A1247
:100028008A111628F030831603138600F0308312E5
:1000380003138600831603138801831203138801B0
:100048008316031387018312031387017F30FF0090
:100058007F0883160313810588308B0083120313EE
:100068008709043083120313A200CF30A1000130A6
:10007800A000A00B3D28A10B3D28A20B3D2832284B
:100088000A128A110E280B1C4A284B286928831249
:1000980003130608F039F600E0307606031D5528EC
:1000A8005628582888098701FE30FF007F088B05ED
:1000B8002730F2000D30F1002630F000F00B6228F6
:1000C800F10B6228F20B622800007508FF00740823
:0C00D8008A00730E8300FE0E7E0E0900ED
:02400E003A3F37
:00000001FF
