:060000000A128A110C280F
:10000800FE00030EF2000A08F3000A128A111528EE
:100018000A128A110F28F001F10183010A128A11CC
:100028003728831203130C1C1A281B283028013088
:10003800F0070318F10A0030F10714307006710454
:10004800031D272828282B288609F001F1013C30B8
:100058008F001F308E000C1073088A00720E830008
:10006800FE0E7E0E09008316031386018312031306
:1000780086013C308F001F308E00900101308600D1
:1000880010140C10831603130C140B178B174B2822
:060098000A128A110C2877
:02400E003B3F36
:00000001FF
