:060000000A128A11E62F2E
:10000C00F200F730FF007F08831203138705720894
:10001C0088000714FE30FF007F088705C330F1000D
:10002C00CD30F000F00B1828F10B18280800F80060
:10003C00F401F5017008F200F3017208F600730880
:10004C00F700781C2A282B2831287608F407031887
:10005C00F50A7708F50701300310F60DF70DFF3E92
:10006C00031D32280310F80C7808031D3E283F2886
:10007C0027287508F1007408F00008000A128A1588
:10008C00EC250A128A1180300A128A1106200A12F3
:10009C008A1183120313E001E10183120313600838
:1000AC00AA3E8400831300080A128A15E3240A125C
:1000BC008A11013083120313E0070318E10A0030A0
:1000CC00E1076108803AFF0080307F02031D702831
:1000DC0009306002031C732874285328C0300A129C
:1000EC008A1106200A128A1183120313E001E1011E
:1000FC00831203136008A03E8400831300080A12C5
:10010C008A15E3240A128A11013083120313E007C3
:10011C000318E10A0030E1076108803AFF008030E3
:10012C007F02031D9B2809306002031C9E289F2818
:10013C007E2883120313E401E50181309F001F1513
:10014C001F19A928AA28A6281E08DE00DF015E08B0
:10015C00E6005F08E700831603131E0883120313DF
:10016C00DE00DF015E08E8005F08E9006608DF00DA
:10017C00DE0168085E04E40069085F04E5006408B9
:10018C00F0006508F100F201F30100300A128A1543
:10019C0067260A128A11730883120313A7007208C8
:1001AC00A6007108A5007008A4004230A3004030DE
:1001BC00A2000030A1000030A0000A128A11A12474
:1001CC000A128A11831203132308C1002208C000EB
:1001DC002108BF002008BE004430BD007F30BC00A9
:1001EC00C030BB000030BA000A128A11D2220A12A7
:1001FC008A11831203133D08D7003C08D6003B0834
:10020C00D5003A08D4000A128A1574250A128A11EC
:10021C00831203135508E3005408E2006508A1009B
:10022C006408A0000A128A1158210A128A11C330DC
:10023C0083120313DF00CC30DE00DE0B2329DF0B2F
:10024C0023290000831203136308DF006208DE0019
:10025C000310DF0CDE0C0310DF0CDE0C5E089500C7
:10026C0062080339DE0004300310DE0DFF3E031D6F
:10027C003A291708CF395E04970080300A128A1188
:10028C0006200A128A11831203136308A100620864
:10029C00A0000A128A151F270A128A119F280A1217
:1002AC008A110028013083120313A4000030A5002A
:1002BC002108AC002008AB00A6290A30F000003061
:1002CC00F1002C08F3002B08F2000A128A153025D5
:1002DC000A128A117108F8007008F700F630F9005C
:1002EC00FF30FA000A128A150B250A128A118312A2
:1002FC0003132B087707A2002C0803182C0A780785
:10030C00A3002408263E84002208831380000130B9
:10031C00A4070318A50A0030A5070A30F000003026
:10032C00F1002C08F3002B08F2000A128A15302574
:10033C000A128A11710883120313AC007008AB0007
:10034C002B082C04031DAB29AC2963292408263E59
:10035C00840083138001FF30A4070318A50AFF3023
:10036C00A5072A080319BB29BC29ED2988300A12D4
:10037C008A1106200A128A11831203132A08303EAE
:10038C000A128A15E3240A128A118312031329080C
:10039C00303E0A128A15E3240A128A1183120313BF
:1003AC002808303E0A128A15E3240A128A11831295
:1003BC0003132708303E0A128A15E3240A128A1105
:1003CC0056300A128A15E3240A128A11D12A2908F6
:1003DC000319F129F229202A88300A128A110620E1
:1003EC000A128A1120300A128A15E3240A128A1181
:1003FC00831203132908303E0A128A15E3240A12C9
:10040C008A11831203132808303E0A128A15E3243A
:10041C000A128A11831203132708303E0A128A1516
:10042C00E3240A128A1156300A128A15E3240A129E
:10043C008A11D12A28080319242A252A502A8830FF
:10044C000A128A1106200A128A1120300A128A1501
:10045C00E3240A128A1120300A128A15E3240A12A4
:10046C008A11831203132808303E0A128A15E324DA
:10047C000A128A11831203132708303E0A128A15B6
:10048C00E3240A128A1156300A128A15E3240A123E
:10049C008A11D12A27080319542A552A952A8830FB
:1004AC000A128A1106200A128A1120300A128A15A1
:1004BC00E3240A128A1189300A128A1106200A12C0
:1004CC008A1120300A128A15E3240A128A118A3002
:1004DC000A128A1106200A128A1120300A128A1571
:1004EC00E3240A128A118B300A128A1106200A128E
:1004FC008A11831203132708303E0A128A15E3244B
:10050C000A128A118C300A128A1106200A128A11D8
:10051C0056300A128A15E3240A128A11D12A88301D
:10052C000A128A1106200A128A1120300A128A1520
:10053C00E3240A128A1189300A128A1106200A123F
:10054C008A1120300A128A15E3240A128A118A3081
:10055C000A128A1106200A128A1120300A128A15F0
:10056C00E3240A128A118B300A128A1106200A120D
:10057C008A1120300A128A15E3240A128A118C304F
:10058C000A128A1106200A128A1120300A128A15C0
:10059C00E3240A128A1108008312031341088039DC
:1005AC00CB004108C2004207D200C01FDE2ADF2A5E
:1005BC00E02A521452080319E42AE52AF52A520AB1
:1005CC00031DE92AEA2AF22A0030C1000030C000DB
:1005DC000030BF000030BE00C017C101FD2A003042
:1005EC00C1000030C0000030BF000030BE003D082C
:1005FC008039FF007F08CB063D08C2004207D300BC
:10060C00BC1F092B0A2B0B2B5314530803190F2B4C
:10061C00102B202B530A031D142B152B1D2B0030D4
:10062C00BD000030BC000030BB000030BA00BC176D
:10063C00BD01282B0030BD000030BC000030BB00D9
:10064C000030BA003D083C043B043A04031D2F2B38
:10065C00302B492B0030C1000030C0000030BF00EF
:10066C000030BE008030C0047F30C1044B08FF0056
:10067C007F08C1044108BD004008BC003F08BB0016
:10068C003E08BA00A02C5208031D4D2B4E2B572BA5
:10069C000030BD000030BC000030BB000030BA00A0
:1006AC00A02C5208C200C3014308C50053084202E3
:1006BC00C400031CC50344087F3ECC004508031846
:1006CC00013E003ECD004108CA004008C9003F0869
:1006DC00C8003E08C7000030C1000030C000003028
:1006EC00BF000030BE000030D1000030D000003020
:1006FC00CF000030CE00D301CD2B53080319872B2C
:10070C00882BA82B0130C2000310C70DC80DC90DD2
:10071C00CA0DC20B8A2B0130C2000310BE0DBF0DD7
:10072C00C00DC10DC20B932BD11F9D2B9E2B9F2B4C
:10073C003E140130C2000310CE0DCF0DD00DD10DE3
:10074C00C20BA12B3D084A02031DB62B3C084902E3
:10075C00031DB62B3B084802031DB62B3A08470273
:10076C00031CB92BBA2BC92B51173A08C7023B08EB
:10077C00031C3B0FC8023C08031C3C0FC9023D087C
:10078C00031C3D0FCA020130FF007F08D3071A304B
:10079C005302031CD22BD32B832B4A084904480445
:1007AC0047040319DA2BDB2BFA2B4E14FA2B0130EE
:1007BC00C2000310BE0DBF0DC00DC10DC20BDF2B4F
:1007CC00D11FE92BEA2BEB2B3E140130C200031096
:1007DC00CE0DCF0DD00DD10DC20BED2BFF30CC07B4
:1007EC000318CD0AFF30CD07C01FFD2BFE2BDD2BD0
:1007FC00D301D11F022C032C1F2CFF304E05C2003D
:10080C00FF304F05C300FF305005C4007F30510549
:10081C00C50045084404430442040319162C172C44
:10082C001A2CD301D30A1F2C3E1C1D2C1E2C1F2C42
:10083C00172C53080319232C242C552C0130BE07DC
:10084C00003003180130BF07003003180130C00717
:10085C00003003180130C107411C352C362C552CA7
:10086C003E08C2003F08C3004008C4004108C50050
:10087C000130C600450DC50CC40CC30CC20CC60B14
:10088C00402C4508C1004408C0004308BF00420882
:10089C00BE000130CC070318CD0A0030CD074D083F
:1008AC00803AFF0080307F02031D5E2CFF304C022B
:1008BC00031C612C622C702CFF3083120313CC00B0
:1008CC000030CD000030C1000030C0000030BF004F
:1008DC000030BE00831203134D08803AFF008030B5
:1008EC007F02031D7B2C01304C0203187E2C7F2CC5
:1008FC008C2C83120313CC01CD010030C1000030CD
:10090C00C0000030BF000030BE00CB0183120313C7
:10091C004C08D200521C932C942C962CC0179A2C59
:10092C007F30FF007F08C0055208C2000310420C44
:10093C00C1003C2B08008312031323088039AD003F
:10094C002308A8002807B300A21FAD2CAE2CAF2C97
:10095C00331433080319B32CB42CC32C330A031DE2
:10096C00B82CB92CC12C0030A3000030A2000030F0
:10097C00A1000030A000A217CB2C0030A300003047
:10098C00A2000030A1000030A00027088039FF0031
:10099C007F08AD062708A8002807B200A61FD72C91
:1009AC00D82CD92C321432080319DD2CDE2CED2C6A
:1009BC00320A031DE22CE32CEB2C0030A700003094
:1009CC00A6000030A5000030A400A617F52C0030BE
:1009DC00A7000030A6000030A5000030A4003208AB
:1009EC000319F92CFA2CFF2C3308031DFE2CFF2CB9
:1009FC00082D0030A3000030A2000030A100003010
:100A0C00A000E52F2008F00026080A128A111D20EC
:100A1C000A128A11710883120313B9007008B80006
:100A2C003808A800A901AA01AB012B08B1002A08BB
:100A3C00B0002908AF002808AE003908A800A901A9
:100A4C00AA01AB012B08B7002A08B6002908B5008B
:100A5C002808B4002108F00025080A128A111D206C
:100A6C000A128A11710883120313B9007008B800B6
:100A7C003808A800A901AA01AB012808AE0729086B
:100A8C0003110318013E03194C2DAF072A0803115B
:100A9C000318013E0319532DB0072B08031103183B
:100AAC00013E03195A2DB1073908A800A901AA0162
:100ABC00AB012808B407290803110318013E0319D8
:100ACC00682DB5072A0803110318013E03196F2D71
:100ADC00B6072B0803110318013E0319762DB7072F
:100AEC002208F00024080A128A111D200A128A1109
:100AFC00710883120313B9007008B8003808A800F5
:100B0C00A901AA01AB012808AE0729080311031893
:100B1C00013E0319922DAF072A0803110318013E59
:100B2C000319992DB0072B0803110318013E031963
:100B3C00A02DB1073908A800A901AA01AB0128080A
:100B4C00B407290803110318013E0319AE2DB5078C
:100B5C002A0803110318013E0319B52DB6072B08FB
:100B6C0003110318013E0319BC2DB7070830A80068
:100B7C000310AE0DAF0DB00DB10DA80BBE2D21089D
:100B8C00F00024080A128A111D200A128A11710819
:100B9C0083120313B9007008B8003808A80039088C
:100BAC00A900AA01AB012808AE07290803110318F4
:100BBC00013E0319E22DAF072A0803110318013E69
:100BCC000319E92DB0072B0803110318013E031973
:100BDC00F02DB1072008F00025080A128A111D20FB
:100BEC000A128A11710883120313B9007008B80035
:100BFC003808A8003908A900AA01AB012808AE07DB
:100C0C00290803110318013E03190D2EAF072A08FA
:100C1C0003110318013E0319142EB0072B080311FE
:100C2C000318013E03191B2EB1070830A80003104E
:100C3C00AE0DAF0DB00DB10DA80B1D2E2008F000A0
:100C4C0024080A128A111D200A128A1171088312B3
:100C5C000313B9007008B8003808A8003908A900B7
:100C6C00AA01AB012808AE07290803110318013E9D
:100C7C000319412EAF072A0803110318013E03196B
:100C8C00482EB0072B0803110318013E03194F2EF1
:100C9C00B1072108F00026080A128A111D200A1239
:100CAC008A11710883120313B9007008B800380850
:100CBC00A8003908A900AA01AB012808B407290823
:100CCC0003110318013E03196C2EB5072A080311F2
:100CDC000318013E0319732EB6072B0803110318D2
:100CEC00013E03197A2EB7072208F00025080A12D4
:100CFC008A111D200A128A11710883120313B9007C
:100D0C007008B8003808A8003908A900AA01AB017E
:100D1C002808B407290803110318013E0319972E5C
:100D2C00B5072A0803110318013E03199E2EB607B6
:100D3C002B0803110318013E0319A52EB70722082F
:100D4C00F00026080A128A111D200A128A11710855
:100D5C0083120313B9007008B8003808A8003908CA
:100D6C00A900AA01AB0108300310A80DA90DAA0D0A
:100D7C00AB0DFF3E031DBA2E2808B407290803113A
:100D8C000318013E0319CB2EB5072A0803110318CB
:100D9C00013E0319D22EB6072B0803110318013E8E
:100DAC000319D92EB7072E08A8002F08A900300860
:100DBC00AA003108AB0018300310AB0CAA0CA90C1C
:100DCC00A80CFF3E031DE22E2808B40729080311C6
:100DDC000318013E0319F32EB5072A080311031853
:100DEC00013E0319FA2EB6072B0803110318013E16
:100DFC000319012FB7070830A8000310AE0DAF0D73
:100E0C00B00DB10DA80B032F33083207A800A901B0
:100E1C00A90D2808823EB80029080318013EFF3EA0
:100E2C00B900352F0130A8000310B40DB50DB60D67
:100E3C00B70DA80B1A2FB11F242F252F262F3414D2
:100E4C000130A8000310AE0DAF0DB00DB10DA80B05
:100E5C00282FFF30B8070318B90AFF30B907B61F9F
:100E6C00382F392F182FB201B11F3D2F3E2F5A2F7B
:100E7C00FF302E05A800FF302F05A900FF303005EC
:100E8C00AA007F303105AB002B082A042904280462
:100E9C000319512F522F552FB201B20A5A2F341C5D
:100EAC00582F592F5A2F522F320803195E2F5F2FAC
:100EBC00902F0130B407003003180130B507003013
:100ECC0003180130B607003003180130B707371C80
:100EDC00702F712F902F3408A8003508A900360800
:100EEC00AA003708AB000130AC002B0DAB0CAA0CE0
:100EFC00A90CA80CAC0B7B2F2B08B7002A08B6004A
:100F0C002908B5002808B4000130B8070318B90A3D
:100F1C000030B9073908803AFF0080307F02031D8A
:100F2C00992FFF303802031C9C2F9D2FA82F7F3048
:100F3C0083120313B7008030B6000030B5000030C8
:100F4C00B400D92F831203133908803AFF00803084
:100F5C007F02031DB32F013038020318B62FB72FB1
:100F6C00C32F003083120313B7000030B6000030DB
:100F7C00B5000030B400AD01D92F8312031338082B
:100F8C00B300FF30B405FF30B5057F30B605003037
:100F9C00B705331CD22FD32FD42FB6173308A80084
:100FAC000310280CB7002D08FF007F08B704370882
:100FBC00A3003608A2003508A1003408A0000800E0
:100FCC008313B430FD000C30FE00F730FF00A0306E
:100FDC0084000A128A15D4240A128A11E201E30150
:100FEC00E401E501E601E701E801E90183010A12E8
:040FFC008A114428EA
:1019A0007E088A007F0882000A128A15D0240A1253
:1019B0008A158000840A04087D0603190034FF0A92
:1019C0000319FE0AD42CF200831203138715720840
:1019D00088000714FE30FF007F088705C330F10040
:1019E000CD30F000F00BF22CF10BF22C080041345A
:1019F000443443342034633461346C343A34203416
:101A00000034413444344334203452344134573464
:101A10003A3420340034FB01FC01771C102D112DC9
:101A2000172D7908FB070318FC0A7A08FC07013018
:101A30000310F90DFA0DFF3E031D182D01300310A0
:101A4000F80CF70CFF3E031D1F2D77087804031DCB
:101A50002A2D2B2D0D2D7C08F8007B08F70008009F
:101A6000F401F501700871040319372D382D6F2D1D
:101A7000F601F60A462D01300310F00DF10DFF3E80
:101A8000031D3C2D0130FF007F08F607F11F492D93
:101A90004A2D3B2D01300310F40DF50DFF3E031DC3
:101AA0004B2D71087302031D572D70087202031C21
:101AB0005A2D5B2D622D7008F2027108031CF3038E
:101AC000F302741401300310F10CF00CFF3E031DFF
:101AD000632D0130F602031D6E2D6F2D4A2D750802
:101AE000F1007408F0000800031083120313560D70
:101AF000570DDD005D08031D7E2D7F2D882D0030E4
:101B0000D7000030D6000030D5000030D400EB2DD7
:101B10005408D8005508D9005608DA005708DB00E9
:101B20001F300310DB0CDA0CD90CD80CFF3E031D60
:101B3000912D5808DC00D617FF30D405FF30D505AD
:101B4000FF30D6050030D7059630DD02DD1FA92D08
:101B5000AA2DC42D5D08803A973E0318B02DB12DF3
:101B6000B22D7F2D01300310D70CD60CD50CD40C20
:101B7000FF3E031DB32D0130FF007F08DD07031D6D
:101B8000C22DC32DB22DDB2D20305D02031CC92DCB
:101B9000CA2DD62D7F2D0130D8000310D40DD50DC0
:101BA000D60DD70DD80BCD2D0130DD025D08031DFC
:101BB000DA2DDB2DCB2D5C080319DF2DE02DEB2D6D
:101BC000D409D509D609D709D40A0319D50A0319A6
:101BD000D60A0319D70A08000130831603138500BB
:101BE000870188018130831203139F008E30831692
:101BF00003139F000C3083120313970006309200EA
:101C00005E3083160313920030300A128A110620C8
:101C10000A128A15C330F400CD30F300F30B0E2EF8
:101C2000F40B0E2E30300A128A1106200A128A1581
:101C3000C330F400CD30F300F30B1C2EF40B1C2E3C
:101C400030300A128A1106200A128A15C330F400B5
:101C5000CD30F300F30B2A2EF40B2A2E38300A1263
:101C60008A1106200A128A15C330F400CD30F30021
:101C7000F30B382EF40B382E06300A128A11062088
:101C80000A128A15C330F400CD30F300F30B462E50
:101C9000F40B462E0C300A128A1106200A128A15FD
:101CA000C330F400CD30F300F30B542EF40B542E5C
:101CB00001300A128A1106200A128A15C330F40074
:101CC000CD30F300F30B622EF40B622E0800F80007
:101CD000780803196C2E6D2E812EF31F702E712E35
:101CE000812E7009FA007109FB007209FC0073096A
:101CF000FD00FA0A0319FB0A0319FC0A0319FD0A7D
:101D0000892E7308FD007208FC007108FB00700842
:101D1000FA007308720471047004031D902E912E52
:101D20009A2E0030F3000030F2000030F100003055
:101D3000F0001E2F9630F900AA2E0130FF007F0818
:101D4000F90701300310FD0CFC0CFB0CFA0CFF3EF4
:101D5000031DA22EFE307D05031DAF2EB02E9D2E3D
:101D6000CC2E0130FF007F08F9070130FA07003060
:101D700003180130FB07003003180130FC07003066
:101D800003180130FD0701300310FD0CFC0CFB0CA7
:101D9000FA0CFF3E031DC42EFF307D05031DD12E1E
:101DA000D22EB12EDE2E0130F9020130F4000310E4
:101DB000FA0DFB0DFC0DFD0DF40BD72EFC1BE12ED7
:101DC000E22EE82E023079020318E72EE82ED32EF9
:101DD0007918EB2EEC2EF42EFF30FA05FF30FB05C0
:101DE0007F30FC05FF30FD050310F90C7908F40085
:101DF000F501F601F70118300310F40DF50DF60D9D
:101E0000F70DFF3E031DFC2E7408FA047508FB0451
:101E10007608FC047708FD0478080319102F112FA9
:101E2000162FF31F142F152F162FFD177D08F30003
:101E30007C08F2007B08F1007A08F000080001300D
:101E400083120313A9000030AA002108AC00200867
:101E5000AB006D2F0A30F0000030F1002C08F300C9
:101E60002B08F2000A128A1530250A128A15710809
:101E7000F8007008F700F630F900FF30FA000A1297
:101E80008A150B250A128A15831203132B0877076C
:101E9000A2002C0803182C0A7807A3002908243E66
:101EA00084002208831380000130A9070318AA0ABE
:101EB0000030AA070A30F0000030F1002C08F300CF
:101EC0002B08F2000A128A1530250A128A157108A9
:101ED00083120313AC007008AB002B082C04031D05
:101EE000722F732F2A2F2908243E84008313800128
:101EF000FF30A9070318AA0AFF30AA07260803190A
:101F0000822F832FAE2FCA300A128A1106200A129E
:101F10008A15831203132608303E0A128A15E32419
:101F20000A128A15CB300A128A1106200A128A1563
:101F3000831203132508303E0A128A15E3240A127D
:101F40008A15CC300A128A1106200A128A155630D8
:101F50000A128A15E3240A128A15FF2F250803198D
:101F6000B22FB32FDB2FCA300A128A1106200A12B1
:101F70008A1520300A128A15E3240A128A15CB30FA
:101F80000A128A1106200A128A15831203132508E1
:101F9000303E0A128A15E3240A128A15CC300A123E
:101FA0008A1106200A128A1556300A128A15E3246D
:101FB0000A128A15FF2FCA300A128A1106200A1245
:101FC0008A1520300A128A15E3240A128A15CB30AA
:101FD0000A128A1106200A128A1520300A128A155E
:101FE000E3240A128A15CC300A128A1106200A123A
:101FF0008A1520300A128A15E3240A128A1508006D
:02400E003B3F36
:00000001FF
