:060000000A128A110E280D
:10000800FE00030EF3000A08F4007F08F5000A1248
:100018008A1140280A128A111128F60183010A124E
:100028008A111628013083160313860083120313DE
:10003800860183160313880183120313880183162C
:100048000313870183120313870190308B008312F7
:1000580003138709043083120313A200CF30A100D1
:100068000130A000A00B3628A10B3628A20B362899
:100078002B280A128A110E288B1C43284428592839
:100088008312031388098701FD30FF007F088B0561
:100098002730F2000D30F1002630F000F00B522826
:1000A800F10B5228F20B522800007508FF00740863
:0C00B8008A00730E8300FE0E7E0E09000D
:02400E003A3F37
:00000001FF
