:060000000A128A11DA2F3A
:100E0A0044344934563459344134F70083120313B5
:100E1A008715770888000714FE30FF007F088705CA
:100E2A00C330F600CD30F500F50B192FF60B192F4C
:100E3A000800F700F730FF007F08831203138705C5
:100E4A00770888000714FE30FF007F088705C33043
:100E5A00F600CD30F500F50B302FF60B302F0800D9
:100E6A000A128A1173270A128A1182300A128A1107
:100E7A001E270A128A11FD017D08703E84000008AF
:100E8A000A128A110A270A128A110130FF007F0802
:100E9A00FD0706307D02031C532F542F412FFD01FD
:100EAA007D08CE3C0A128A111E270A128A117D0871
:100EBA00703E840000080A128A110A270A128A114F
:100ECA000130FF007F08FD0706307D02031C6E2FEC
:100EDA006F2F552F6F2F0A128A11002883160313BA
:100EEA008701880130300A128A111E270A128A11D4
:100EFA00C330F900CD30F800F80B812FF90B812FA0
:100F0A0030300A128A111E270A128A11C330F900D8
:100F1A00CD30F800F80B8F2FF90B8F2F30300A12D3
:100F2A008A111E270A128A11C330F900CD30F8003F
:100F3A00F80B9D2FF90B9D2F38300A128A111E27A4
:100F4A000A128A11C330F900CD30F800F80BAB2F22
:100F5A00F90BAB2F06300A128A111E270A128A11C0
:100F6A00C330F900CD30F800F80BB92FF90BB92FBF
:100F7A000C300A128A111E270A128A11C330F9008C
:100F8A00CD30F800F80BC72FF90BC72F01300A1222
:100F9A008A111E270A128A11C330F900CD30F800CF
:100FAA00F80BD52FF90BD52F08000A128A1105273D
:100FBA000A128A11F0000A128A1106270A128A11E5
:100FCA00F1000A128A1107270A128A11F2000A127C
:100FDA008A1108270A128A11F3000A128A110927AC
:100FEA000A128A11F400FA01FB01FC01FD018301D6
:060FFA000A128A11352FD6
:02400E003B3F36
:00000001FF
