:060000000A128A11E22F32
:100130000A128A11B5200A128A11831603131114A8
:1001400008000A128A11B5200A128A1183160313B5
:1001500011150800F0000A128A11B5200A128A113E
:100160007008831203139300080083160313110809
:100170001F39031DBC28BD28B5281419C028C12863
:10018000B52808007E088A007F0882000A128A11BA
:10019000C2200A128A118000840A04087D0603190D
:1001A0000034FF0A0319FE0AC6284434413454348B
:1001B00045343A34543449344D3445343A3418349F
:1001C00000340B340034133400340B3400343B342B
:1001D0000034373400340134F20083120313071162
:1001E0007208880087140730F1007D30F000F00BB2
:1001F000F728F10BF7288312031387102130F10041
:100200007630F000F00B0229F10B02290000080003
:10021000F200831203130715720888008714073051
:10022000F1007D30F000F00B1329F10B132983123C
:10023000031387102130F1007630F000F00B1E29F7
:10024000F10B1E2900000800F401F501701C29299A
:100250002A2930297208F4070318F50A7308F507EC
:1002600001300310F20DF30DFF3E031D3129013063
:100270000310F10CF00CFF3E031D382970087104C7
:10028000031D4329442926297508F1007408F0004C
:1002900008000F307605F80000307705F900760E7B
:1002A0000F39F000770EF039F004770E0F39F100B6
:1002B000F030F11D0030F1040A30F2000030F3009C
:1002C0000A128A1124210A128A1178087007F6008E
:1002D00079080318790A7107F70008000A128A11D1
:1002E000B5200A128A118316031391150A128A1176
:1002F000B5200A128A11831203131308F200F301C6
:100300007208F4007308F5000A128A11B5200A1267
:100310008A117008710403198E2992298316031318
:100320009116952983160313911211167508F10081
:100330007408F00008000A30F0000030F10079087D
:10034000F3007808F2000A128A11FD220A128A11BB
:100350007008FA007108FB00FA0EFB0EF030FB0586
:100360007A080F39FB04F030FA050A30F00000304B
:10037000F1007908F3007808F2000A128A11A42229
:100380000A128A1170087A07F80071080318710AB6
:100390007B07F900080083160313880118308700D3
:1003A00083120313880138300A128A11EC200A12D2
:1003B0008A112130F4007630F300F30BDD29F40BC1
:1003C000DD2900000C300A128A11EC200A128A1171
:1003D0002130F4007630F300F30BEC29F40BEC2918
:1003E000000006300A128A11EC200A128A1121300C
:1003F000F4007630F300F30BFB29F40BFB2900002B
:1004000001300A128A11EC200A128A112130F400FC
:100410007630F300F30B0A2AF40B0A2A00000800D6
:100420000030FC000030FB000030FA000030F90022
:10043000701C1B2A1C2A332A7408F907750803113B
:100440000318013E0319252AFA0776080311031839
:10045000013E03192C2AFB07770803110318013EFC
:100460000319332AFC070130F8000310F40DF50DD1
:10047000F60DF70DF80B352A01300310F30CF20CD2
:10048000F10CF00CFF3E031D3D2A73087204710449
:100490007004031D4C2A4D2A182A7C08F3007B089F
:1004A000F2007A08F1007908F00008002830831281
:1004B00003139400831603139401831203132D086E
:1004C000B1002E08B2002F08B3003008B40002308B
:1004D0000310B10DB20DB30DB40DFF3E031D682A1C
:1004E0003408F3003308F2003208F1003108F0005C
:1004F0000030F7000030F6000030F5006430F40002
:100500000A128A1110220A128A1173088312031325
:10051000A3007208A2007108A1007008A0000130B9
:10052000A7003130A6002D30A5000030A4000A122B
:100530008A1164230A128A11831203132008FF3ED2
:100540008316031393000800F501F31FA82AA92AB4
:10055000B02AF209F309F20A0319F30AF501F50AC0
:10056000F11FB32AB42AB92AF009F109F00A0319D4
:10057000F10A700871040319BE2ABF2AEE2AF40199
:10058000F40ACD2A01300310F00DF10DFF3E031DDA
:10059000C32A0130FF007F08F407F11FD02AD12AB7
:1005A000C22A71087302031DD72A70087202031C45
:1005B000DA2ADB2AE12A7008F2027108031CF3032D
:1005C000F30201300310F10CF00CFF3E031DE22A90
:1005D0000130F402031DED2AEE2AD12A7508031911
:1005E000F22AF32AF82AF209F309F20A0319F30AA4
:1005F0007308F1007208F0000800F501F11F012BEB
:10060000022B092BF009F109F00A0319F10AF5018F
:10061000F50AF31F0C2B0D2B162BF209F309F20A26
:100620000319F30A0130FF007F08F506F601F70110
:100630007008710403191D2B1E2B552BF401F40AAD
:100640002C2B01300310F00DF10DFF3E031D222B6A
:100650000130FF007F08F407F11F2F2B302B212BD7
:1006600001300310F60DF70DFF3E031D312B71080D
:100670007302031D3D2B70087202031C402B412B9B
:10068000482B7008F2027108031CF303F30276147E
:1006900001300310F10CF00CFF3E031D492B01301B
:1006A000F402031D542B552B302B75080319592BBD
:1006B0005A2B5F2BF609F709F60A0319F70A770890
:1006C000F1007608F0000800003083120313AB003D
:1006D0000030AA000030A9000030A800230822043E
:1006E000210420040319752B762BC32BAC01AC0A13
:1006F000862B0130FD000310A00DA10DA20DA30D4E
:10070000FD0B7B2B0130FF007F08AC07A31F892B5B
:100710008A2B792B0130FD000310A80DA90DAA0D1D
:10072000AB0DFD0B8C2B23082702031DA12B2208E8
:100730002602031DA12B21082502031DA12B200841
:100740002402031CA42BA52BB42B2008A4022108EF
:10075000031C210FA5022208031C220FA602230856
:10076000031C230FA702281401300310A30CA20CB2
:10077000A10CA00CFF3E031DB52B0130AC02031DE4
:10078000C22BC32B8A2B2B08A3002A08A2002908FE
:10079000A1002808A00008000A128A1198200A1255
:1007A0008A11D0300A128A11AA200A128A11003046
:1007B0000A128A11AA200A128A11831203135308FB
:1007C000F9005208F8000A128A119B210A128A11B4
:1007D00078080A128A11AA200A128A1183120313B6
:1007E0005108F9005008F8000A128A119B210A12D8
:1007F0008A1178080A128A11AA200A128A11831211
:1008000003134F08F9004E08F8000A128A119B21C1
:100810000A128A11780840380A128A11AA200A128C
:100820008A1101300A128A11AA200A128A1183122F
:1008300003134D08F9004C08F8000A128A119B2195
:100840000A128A1178080A128A11AA200A128A1139
:10085000831203134B08F9004A08F8000A128A11A0
:100860009B210A128A1178080A128A11AA200A12F8
:100870008A11831203134908F9004808F8000A1284
:100880008A119B210A128A1178080A128A11AA2059
:100890000A128A110A128A11A1200A128A1108006A
:1008A0000A128A1198200A128A11D0300A128A116B
:1008B000AA200A128A1100300A128A11AA200A12EA
:1008C0008A110A128A11A1200A128A110A128A11A7
:1008D00098200A128A11D1300A128A11AA200A120B
:1008E0008A110130F0000030F1000A128A116E21E5
:1008F0000A128A117108F7007008F6000A128A11AC
:1009000049210A128A11770883120313D30076084B
:10091000D2000130F0000030F1000A128A116E217D
:100920000A128A117108F7007008F6000A128A117B
:1009300049210A128A11770883120313D10076081D
:10094000D0000130F0000030F1000A128A116E214F
:100950000A128A111F307005F60000307105F70089
:100960000A128A1149210A128A1177088312031385
:10097000CF007608CE000130F0000030F1000A12FE
:100980008A116E210A128A11F01AC72CC92C013063
:10099000CA2C003083120313D4000130F000003061
:1009A000F1000A128A116E210A128A117108F700E9
:1009B0007008F6000A128A1149210A128A11770872
:1009C00083120313CD007608CC000130F000003014
:1009D000F1000A128A116E210A128A117108F700B9
:1009E0007008F6000A128A1149210A128A11770842
:1009F00083120313CB007608CA000030F000F10028
:100A00000A128A116E210A128A117108F700700801
:100A1000F6000A128A1149210A128A1177088312F4
:100A20000313C9007608C8000A128A11A1200A120D
:100A30008A110C30831203134E064F04031D212D1F
:100A4000222DE62D50085104031D272D282DE62DBB
:100A500052085304031D2D2D2E2DE62D5408031985
:100A6000322D332DE42DD4010130CC070318CD0AEB
:100A70000030CD0704304A064B040319402D412DA8
:100A8000562D06304A064B040319472D482D562D86
:100A900009304A064B0403194E2D4F2D562D0B30AD
:100AA0004A064B04031D552D562D702D4D08803AD6
:100AB000FF0080307F02031D5F2D1F304C02031C9E
:100AC000622D632D702D013083120313CC00003092
:100AD000CD000130CA070318CB0A0030CB07E62D42
:100AE0000230831203134A064B04031D782D792D1F
:100AF000AE2D03304805FA0000304905FB007A08A6
:100B00007B04031D842D852D922D4D08803AFF0016
:100B100080307F02031D8E2D1E304C020318912D54
:100B2000922D632D0330831203134805FA00003021
:100B30004905FB007A087B0403199F2DA02DAE2DDB
:100B40004D08803AFF0080307F02031DA92D1D3023
:100B50004C02031CAC2DAD2DAE2D632D831203135F
:100B60004D08803AFF0080307F02031DB92D2030F0
:100B70004C02031CBC2DBD2DE62D01308312031346
:100B8000CC000030CD000130CA070318CB0A00307A
:100B9000CB074B08803AFF0080307F02031DD22D27
:100BA0000D304A02031CD52DD62DE32D01308312C2
:100BB0000313CA000030CB000130C8070318C90A6C
:100BC0000030C907E62DE62DD401D40A08000A1228
:100BD0008A11CB210A128A11003083120313B0004C
:100BE0000030AF000030AE006430AD000A128A1150
:100BF00056220A128A110A128A11CC230A128A1169
:100C00000A128A1150240A128A110A30F0000030A8
:100C1000F100831203135308F3005208F2000A1282
:100C20008A11FD220A128A11700883120313E00050
:100C30000A30F0000030F1005308F3005208F200CF
:100C40000A128A11A4220A128A117008831203134D
:100C5000DF000A30F0000030F1005108F3005008C6
:100C6000F2000A128A11FD220A128A1170088312F8
:100C70000313DE000A30F0000030F1005108F300E9
:100C80005008F2000A128A11A4220A128A1170086E
:100C900083120313DD000A30F0000030F1004F082A
:100CA000F3004E08F2000A128A11FD220A128A117C
:100CB000700883120313DC000A30F0000030F100EA
:100CC0004F08F3004E08F2000A128A11A4220A12F9
:100CD0008A11700883120313DB000A30F000003021
:100CE000F1004D08F3004C08F2000A128A11FD22AF
:100CF0000A128A11700883120313DA000A30F00016
:100D00000030F1004D08F3004C08F2000A128A117D
:100D1000A4220A128A11700883120313D9000A3020
:100D2000F0000030F1004B08F3004A08F2000A120C
:100D30008A11FD220A128A11700883120313D80047
:100D40000A30F0000030F1004B08F3004A08F200CE
:100D50000A128A11A4220A128A117008831203133C
:100D6000D7000A30F0000030F1004908F3004808CD
:100D7000F2000A128A11FD220A128A1170088312E7
:100D80000313D6000A30F0000030F1004908F300E8
:100D90004808F2000A128A11A4220A128A11700865
:100DA00083120313D50080300A128A11EC200A1234
:100DB0008A1183120313BA01BB01831203133A0889
:100DC000433E8400831300080A128A1108210A1284
:100DD0008A11013083120313BA070318BB0A0030CB
:100DE000BB073B08803AFF0080307F02031DFA2ECC
:100DF00005303A02031CFD2EFE2EDD2E8312031356
:100E00005C08303E0A128A1108210A128A118312E4
:100E100003135B08303E0A128A1108210A128A1154
:100E20003A300A128A1108210A128A118312031316
:100E30005E08303E0A128A1108210A128A118312B2
:100E400003135D08303E0A128A1108210A128A1122
:100E50003A300A128A1108210A128A1183120313E6
:100E60006008303E0A128A1108210A128A11831280
:100E700003135F08303E0A128A1108210A128A11F0
:100E800020300A128A1108210A128A1183120313D0
:100E90005408031D4C2F4D2F522F4130B800003005
:100EA000B900562F5030B8000030B90038080A1287
:100EB0008A1108210A128A114D300A128A1108215A
:100EC0000A128A11C0300A128A11EC200A128A1101
:100ED00083120313BC01BD01831203133C083E3E81
:100EE0008400831300080A128A1108210A128A1149
:100EF000013083120313BC070318BD0A0030BD077D
:100F00003D08803AFF0080307F02031D892F0530A5
:100F10003C02031C8C2F8D2F6C2F831203135A0855
:100F2000303E0A128A1108210A128A118312031311
:100F30005908303E0A128A1108210A128A112F30EC
:100F40000A128A1108210A128A11831203135808FF
:100F5000303E0A128A1108210A128A1183120313E1
:100F60005708303E0A128A1108210A128A112F30BE
:100F70000A128A1108210A128A11831203135608D1
:100F8000303E0A128A1108210A128A1183120313B1
:100F90005508303E0A128A1108210A128A110D30B2
:100FA00083120313B700AF30B600B530B500B50BF0
:100FB000D72FB60BD72FB70BD72FDE2F002E0A1245
:100FC0008A11002883135530FD000030FE00D53013
:100FD000FF003E3084000A128A11C6200A128A11CC
:100FE000D501D601D701D801D901DA01DB01DC0135
:100FF000DD01DE01DF01E00183010A128A11E72D24
:02400E00723FFF
:00000001FF
