:060000000A128A11FC2F18
:100F26000A128A11A1270A128A110A128A11BC27EB
:100F36000A128A11982F0A128A110028FB3083168A
:100F4600031387000C3083120313970006309200B8
:100F56002E308316031392000930F5002430F40076
:100F66001C30F3005030F2002A30F1009830F000C7
:100F7600080075088312031395001708CF39740407
:100F860097001730F800D530F7001630F600F60B4C
:100F9600CA2FF70BCA2FF80BCA2F0000730883124B
:100FA600031395001708CF39720497001730F8001D
:100FB600D530F7001630F600F60BDF2FF70BDF2FD4
:100FC600F80BDF2F00007108831203139500170832
:100FD600CF39700497001730F800D530F700163077
:100FE600F600F60BF42FF70BF42FF80BF42F000096
:0A0FF600080083010A128A11932FEC
:02400E003B3F36
:00000001FF
