:060000000A128A110E280D
:10000800FE00030EF0000A08F1007F08F2000A1251
:100018008A1117280A128A111128F301F4018301A1
:100028000A128A113D28831203130C1C1C281D2850
:1000380034280130F3070318F40A0030F4070F30AE
:1000480073067404031D29282A2830280130FF006C
:100058007F088606F301F401FE30FF007F088C0557
:100068007208FF0071088A00700E8300FE0E7E0E73
:100078000900831603138601831203138F018E016F
:1000880001309000013086001014831603130C14FD
:10009800FE30FF007F08831203138C05C030FF0079
:0C00A8007F088B0456280A128A110E28CB
:02400E003B3F36
:00000001FF
