:060000000A128A11FC2F18
:100F1A00F10071088312031387000800F1007108B9
:100F2A0083160313870008007F30FF007F088316AB
:100F3A0003138105080000300A128A1193270A1246
:100F4A008A1100300A128A118D270A128A11F0308A
:100F5A008316031386008312031386010A128A1169
:100F6A0099270A128A11831203130608F039F0002E
:100F7A00E82F80300A128A118D270A128A11B82F97
:100F8A0004300A128A118D270A128A11B82F0030EA
:100F9A000A128A118D270A128A11B82F84300A126E
:100FAA008A118D270A128A11B82F00300A128A1163
:100FBA008D270A128A11B82F00300A128A118D273A
:100FCA000A128A11B82F7008703A0319D32FC03A3F
:100FDA000319CC2F603A0319C52F303A0319BE2FD3
:100FEA00103A0319DA2FE12F0A128A110028830115
:060FFA000A128A11A02F6B
:02400E003B3F36
:00000001FF
