:060000000A128A110E280D
:10000800FE00030EF0000A08F1007F08F2000A1251
:100018008A1116280A128A111128F30183010A127B
:100028008A113D28831203138C1D1B281C282228A3
:100038001308F300F730FF007F088C057208FF00F3
:1000480071088A00700E8300FE0E7E0E09002430AF
:100058008312031394008316031394011830870046
:1000680004309F002030850008308C00C0308B00A1
:1000780008000A128A112B200A128A118316031308
:1000880086018312031386017308860048280A1222
:040098008A110E2893
:02400E003B3F36
:00000001FF
